:100000000C9489010C94B1010C94B1010C94AC04D2
:100010000C94AC040C94AC040C94B1010C94B1019C
:100020000C94B1010C94B1010C94B1010C94B10188
:100030000C94B1010C94B1010C94B1010C94B10178
:100040000C9428150C94B1010C9444110C94751166
:100050000C94B1010C94B1010C94B1010C94B10158
:100060000C94B1010C94B10157694669206E6F740C
:1000700020636F6E6E65637465642C206E6F7420F0
:10008000617474656D7074696E67205443502063A9
:100090006F6E6E656374696F6E0057694669206E96
:1000A0006F7420636F6E6E65637465642C20666187
:1000B000696C65642054435020636F6E6E65637491
:1000C000696F6E2074657374006E6F20636F6E6E5F
:1000D000656374696F6E20746F2072656C656173FF
:1000E000650072656C65617365207463702065726C
:1000F000720D0A0072656C6561736520746370200F
:100100006F6B0D0A005D0D0A0052656365697665C7
:10011000643A5B0043757272656E74205374617447
:1001200075733A2000637265617465207463702092
:100130006572720D0A006372656174652074637084
:10014000206F6B0D0A00736574757020656E640D09
:100150000A0073696E676C65206572720D0A007320
:10016000696E676C65206F6B0D0A00746F20737485
:100170006174696F6E202B20736F667461702065E7
:1001800072720D0A00746F2073746174696F6E204F
:100190002B20736F66746170206F6B0D0A004657D9
:1001A0002056657273696F6E3A004B69636B696EB6
:1001B000672045535020726573756C743A20007344
:1001C0006574757020626567696E0D0A004A6F6913
:1001D0006E204150206661696C7572650D0A004A97
:1001E0006F696E20415020737563636573730D0AE8
:1001F00000667265654D656D6F727928293D004115
:10020000542B4349504D55583D0041542B434950C0
:10021000434C4F53450041542B43495053454E44A2
:100220003D00222C00222C220041542B43495053E4
:10023000544152543D220041542B434950535441A0
:10024000545553002200222C220041542B43574A7C
:1002500041503D220041542B43574D4F44453D00F2
:1002600041542B43574D4F44453F0041542B474D7C
:10027000520041542B52535400415400726563762E
:1002800046696E64416E6446696C7465722064618F
:1002900074615F746D703A200057616974696E67AC
:1002A00020666F7220726573706F6E736500000058
:1002B0000008000201000003040700000000000025
:1002C00000000102040810204080010204081020F0
:1002D00001020408102004040404040404040202BB
:1002E00002020202030303030303000000002300D1
:1002F0002600290000000000250028002B00000037
:100300000000240027002A0070034D06A5117B037E
:10031000540611241FBECFEFD8E0DEBFCDBF11E0E1
:10032000A0E0B1E0E4E6F3E302C005900D92AE3E3A
:10033000B107D9F724E0AEEEB1E001C01D92AC39AF
:10034000B207E1F713E0CEE0D3E004C02297FE014C
:100350000E940817C830D107C9F70E9419150C94DC
:10036000A5190C9400001F93CF93DF93CDB7DEB790
:100370002C970FB6F894DEBF0FBECDBF66E071E0DC
:10038000CE0101960E94FF1367E171E0CE0107964E
:100390000E94FF13AE014F5F5F4FBE01695F7F4F49
:1003A0008EE092E00E94580D182FCE0107960E9411
:1003B0009113CE0101960E949113112331F081E037
:1003C0008093EE016FED71E004C01092EE016DECD0
:1003D00071E08FEE91E00E9426122C960FB6F894F1
:1003E000DEBF0FBECDBFDF91CF911F910895CF9398
:1003F000DF9300D000D000D0CDB7DEB740E052ECA4
:1004000061E070E08FEE91E00E94AF056FEB71E06C
:100410008FEE91E00E9426128EE092E00E94650627
:100420006AEA71E08FEE91E00E9426128EE092E07F
:100430000E94E608682F70E04AE050E08FEE91E0FD
:100440000E943D136EE971E08FEE91E00E9426124A
:100450006EE072E0CE0101960E949C0A69817A8169
:100460008FEE91E00E948812CE0101960E949113B6
:100470008EE092E00E949E0C882319F065E871E0FE
:1004800002C06BE671E08FEE91E00E9426120E949E
:10049000B3018EE092E00E94140E882319F06FE5FC
:1004A00071E002C062E571E08FEE91E00E942612D9
:1004B00066E471E08FEE91E00E94261226960FB658
:1004C000F894DEBF0FBECDBFDF91CF9108958F921C
:1004D0009F92AF92BF92CF92DF92EF92FF920F93D3
:1004E0001F93CF93DF93CDB7DEB7CC50D1400FB67B
:1004F000F894DEBF0FBECDBF8091EE01811102C026
:100500000E94B3018091EE01882309F4C9C09E01C5
:100510002F5F3F4F690180E091E0F9019C0111924A
:1005200021503040E1F761E271E0CE018F5F9E4FD4
:100530000E94FF132AE93FE140E050E0BE016F5FF7
:100540007E4F8EE092E00E94380F182FCE018F5F11
:100550009E4F0E949113112339F066E371E08FEEF4
:1005600091E00E94261208C065E271E08FEE91E0F2
:100570000E9426121092EE018091EE01882309F468
:100580008CC026E130E040E050E06BE271E08EE0AC
:1005900092E00E940A1010E1E12E17E2F12E00E035
:1005A00010E020E031E040E050E0B6018EE092E063
:1005B0000E94F1074B015C0164E171E08FEE91E074
:1005C0000E9426126EE072E0CE01895F9E4F0E946B
:1005D0009C0BBE01695F7E4F8FEE91E00E94761208
:1005E00081149104A104B10411F169E071E08FEE6E
:1005F00091E00E9426128601C12CD12C7601F801CF
:1006000061918F018FEE91E00E945912FFEFCF1A96
:10061000DF0AEF0AFF0AC814D904EA04FB0479F7D9
:1006200065E071E08FEE91E00E94261202C0109208
:10063000EE0162E471E0CE018F5F9E4F0E94FF13D6
:10064000BE016F5F7E4FCE01895F9E4F0E94C41432
:100650008C01CE018F5F9E4F0E9491130F3F1F4F61
:1006600081F08EE092E00E948A09882319F064EFFD
:1006700070E002C062EE70E08FEE91E00E94261200
:1006800006C069EC70E08FEE91E00E946412CE012A
:10069000895F9E4F0E94911309C06AE970E002C011
:1006A00068E670E08FEE91E00E94641268E873E102
:1006B00080E090E00E94A115C45FDE4F0FB6F89471
:1006C000DEBF0FBECDBFDF91CF911F910F91FF9085
:1006D000EF90DF90CF90BF90AF909F908F90089554
:1006E0008EE092E00E943D0620E04CE06DE08FEE4F
:1006F00091E00C947F058FEE91E00C942605E0913B
:100700009A04F0919B0480E090E0309749F00296C3
:1007100020813181820F931F0280F381E02DF5CF7C
:1007200008950F931F93CF93DF9300D0CDB7DEB71B
:1007300080919804909199048E010F5F1F4F00974C
:1007400029F40C5914401A8309830AC0081B190B99
:100750001A8309830E947F03800F911F9A838983E4
:1007600089819A810F900F90DF91CF911F910F9106
:100770000895209151023091520228173907B9F497
:1007800090910F0280911002981789F0E0910F026A
:10079000F0E0EF5EFD4F808120910F0230E02F5F8F
:1007A0003F4F2F73332720930F0290E008958FEF70
:1007B0009FEF08951F93CF93DF93DC015C968D919B
:1007C0009C915D97009749F481E090E013969C938B
:1007D0008E93129780E090E03BC05196ED91FC9192
:1007E000529750962C915097322F30951FB75E96A6
:1007F0004C915E9741FB772770F941FD6095F89425
:100800004081772311F0422B01C043234083EC0148
:100810002197F1F748E0508160FF02C0522B01C0E0
:1008200053235083EC012197F1F76695415099F7D6
:100830008081772311F0832301C0822B80831FBF27
:100840005C968D919C915D970197F1F781E090E026
:10085000DF91CF911F910895209151023091520262
:100860002817390781F490910F0280911002981790
:1008700051F0E0910F02F0E0EF5EFD4F808199278B
:1008800087FD909508958FEF9FEF08952091510275
:10089000309152022817390771F48091100220918B
:1008A0000F0290E0805C9F4F821B910960E470E032
:1008B0000E949D16089580E090E0089520915102D5
:1008C000309152022817390739F48FB7F8941092F3
:1008D000100210920F028FBF0895E0915102F09123
:1008E0005202E817F90769F4A389B4899C918589B4
:1008F000809589238C93109252021092510281E0CC
:10090000089580E00895CF93DF93EC018A8D9B8D4D
:10091000892BF1F080915102909152028C179D0722
:10092000B9F0009711F00E946D048E8D8E7F8E8F2E
:100930001092100210920F02D0935202C0935102F3
:10094000EB89FC8980819D89892B808381E001C0AE
:1009500080E0DF91CF9108951F920F920FB60F9212
:1009600011242F933F934F935F936F937F938F93B4
:100970009F93AF93BF93EF93FF93E0915102F09158
:100980005202309709F451C0868DA685B7859585AA
:1009900081FF04C08C91892329F447C08C9189235D
:1009A00009F043C0A389B4899C91858980958923E6
:1009B0008C93868997890197F1F7208D318DA685D3
:1009C000B785758558E040E0C9010197F1F7842F9C
:1009D00090E095958795482F6C91672309F04068C2
:1009E000515091F7868D81FD40958091100290E0E5
:1009F00001968F73992720910F02281749F0A09133
:100A00001002B0E0AF5EBD4F4C938093100203C064
:100A1000868D8160868F828D938D0197F1F7A389F2
:100A2000B4898C919589892B8C93FF91EF91BF911B
:100A3000AF919F918F917F916F915F914F913F9176
:100A40002F910F900FBE0F901F9018952FE431E05B
:100A5000FC01318320830C946D041F93CF93DF93AB
:100A6000EC01162F6E8D6695617081E06827812FED
:100A70000E94661661E0812F0E942D16812F90E062
:100A8000FC01EE53FD4FE491E88BFC01EA52FD4F6F
:100A9000E491F0E0EE0FFF1FEC50FD4F8591949133
:100AA0009A8B898BDF91CF911F9108951F93CF93DC
:100AB000DF93EC01162F60E0812F0E942D168E8DA2
:100AC00081FD04C061E0812F0E9466161C87812F82
:100AD00090E0FC01EE53FD4FE491ED87FC01EA52FA
:100AE000FD4FE491F0E0EE0FFF1FE651FD4F8591C1
:100AF00094919F878E87DF91CF911F910895FF92E8
:100B00000F931F93CF93DF93EC01F62E522F1B828E
:100B10001A8208EE13E020E030E00C831D832E8360
:100B20003F838FE491E0998388831F8A1E8A198E00
:100B3000188E1B8E1A8E1D8E1C8E8E8D8E7F50FBF6
:100B400081F98E8F642FCE010E942D056F2DCE016D
:100B5000DF91CF911F910F91FF900C945605CF9389
:100B6000DF93EC019A01AB011B8E1A8E198E188E41
:100B70001F8A1E8A60E079E08DE390E00E94D31620
:100B8000C9012430310520F0B9016350710902C058
:100B900061E070E07D8F6C8FEC85E63108F068C015
:100BA000B901769567956431710518F06351710943
:100BB00002C061E070E07F8B6E8B069718F0C90170
:100BC000059702C081E090E0998F888FC901880F56
:100BD000991F820F931F96958795969587958D30CF
:100BE000910510F00C9702C081E090E09B8F8A8FF6
:100BF00020916800E83050F091E0EE3008F490E089
:100C000081E001C0880F9A95EAF701C084E0822B49
:100C1000809368002C85283038F02E3040F0263143
:100C200048F48CE690E008C08DE690E005C08BE6C5
:100C300090E002C080E090E09C8B8B8B283030F4F9
:100C400081E001C0880F2A95EAF70DC0822F90E05D
:100C50002E3010F4089701C00E9791E001C0990F53
:100C60008A95EAF7892F8D8B8C8D9D8D0197F1F7F1
:100C7000CE01DF91CF910C948304089561EF71E070
:100C800083E592E00E9426120E9491034AE050E020
:100C9000BC0183E592E00C943D1320E04CE06DE054
:100CA00083E592E00C947F0583E592E00C942605A1
:100CB00082E792E00E940C10181619062CF482E7C5
:100CC00092E00E942010F4CF0895CF93DF93EC01BF
:100CD00026E040E052EC61E070E082E792E00E94A2
:100CE000E21040E157E260E070E082E792E00E94AB
:100CF0008B1340E052EC61E070E083E592E00E94EB
:100D0000AF05CE010E943E06CE010E945806DF913B
:100D1000CF9108952F923F924F925F926F927F9260
:100D20008F929F92AF92BF92CF92DF92EF92FF92FB
:100D30000F931F93CF93DF93CDB7DEB76F970FB6A7
:100D4000F894DEBF0FBECDBF9E8B8D8B788F6F8BDF
:100D500029013A011A8F098FBC8EAB8E0E943E0684
:100D60001E0127E0220E311C61E471E0C1010E94E6
:100D7000FF134F89588D452B29F460E070E000E0A7
:100D800010E00DC10E9472156D877E878F87988B4A
:100D900069E972E083E592E00E946412298A3D8E3F
:100DA0000E9472152D853E854F855889621B730BF5
:100DB000840B950B6C157D058E059F05F0F682E77B
:100DC00092E00E940C10181619064CF482E792E08B
:100DD0000E942010682F89899D8D0E9479146BE5EF
:100DE00071E0CE0101960E94FF13BE016F5F7F4F3D
:100DF000C1010E94C4148C01CE0101960E9491137E
:100E00000F3F5FEF150761F2580185E0A80EB11C96
:100E1000A5016AE3C1010E948C148C010F3F9FEF72
:100E2000190709F4BDCFA5016CE2C1010E948C1421
:100E30009E878D878F3FAFEF9A0781F180179107CB
:100E40006CF59C01A501B101CE0101960E94C81468
:100E5000CE0101960E940D15D62ECE0101960E945C
:100E60009113B4E0BD1508F488CF98014D855E85D7
:100E70004F5F5F4FB101CE0101960E94C814CE01B1
:100E800001960E940D157B01CE0101960E949113DF
:100E90001E141F040CF071CF1D2D15C09801A50163
:100EA000B101CE0101960E94C814CE0101960E94A4
:100EB0000D157B01CE0101960E9491131E141F0493
:100EC0000CF05BCF1FEF61E671E083E592E00E94DA
:100ED00088129701442737FD4095542F298B3A8B70
:100EE0004B8B5C8B69017A014216530664067506CA
:100EF00010F4730162010E9472152B013C01812CD8
:100F0000912C54010E94721564197509860997097C
:100F1000683B7B408105910508F02FCF82E792E086
:100F20000E940C10181619062CF48C149D04AE04A3
:100F3000BF0430F18C149D04AE04BF0419F78D89F1
:100F40009E890E945806498D5A8D452B59F0298952
:100F50003A894B895C89A98DBA8D2D933D934D9328
:100F60005C931397ED85FE85319639F04B8D5C8D42
:100F70004115510511F0DA011C93B60187010FC02C
:100F800082E792E00E942010EF89F88DE80DF91DAC
:100F900080833FEF831A930AA30AB30ABFCFCE011F
:100FA00007966E8F7F8F0E9491136E8D7F8DC80183
:100FB0006F960FB6F894DEBF0FBECDBFDF91CF9115
:100FC0001F910F91FF90EF90DF90CF90BF90AF9067
:100FD0009F908F907F906F905F904F903F902F9059
:100FE0000895AF92BF92CF92DF92EF92FF920F934C
:100FF0001F9367017801A12CB12C00E010E00E9442
:101000008A061F910F91FF90EF90DF90CF90BF90D5
:10101000AF9008954F925F926F927F92AF92BF927E
:10102000CF92DF92EF92FF920F931F93CF93DF93B4
:10103000EC015A012801390161E471E00E94FF13BB
:101040000E9472156B017C010E9472156C197D095A
:101050008E099F096415750586059705C0F482E71A
:1010600092E00E940C10181619065CF482E792E0D8
:101070000E942010882399F3682FCE010E947914D2
:10108000EECFB501CE010E94C4140196E9F2CE0163
:10109000DF91CF911F910F91FF90EF90DF90CF9054
:1010A000BF90AF907F906F905F904F900895CF92D8
:1010B000DF92EF92FF920F931F93CF93DF93CDB701
:1010C000DEB766970FB6F894DEBF0FBECDBF6C01DA
:1010D0007B0161E471E0CE010D962B8B3C8B4D8B37
:1010E0005E8B0E94FF13B701CE0107960E942C145D
:1010F0002B893C894D895E8989019A01AE01495F3E
:101100005F4FB601CE0101960E940A08BE016F5FD3
:101110007F4FCE010D960E941514CE0101960E94BC
:101120009113CE0107960E949113B701CE010D963F
:101130000E94C4147C01CE010D960E94911381E09F
:10114000EF20E09409F480E066960FB6F894DEBFD5
:101150000FBECDBFDF91CF911F910F91FF90EF9008
:10116000DF90CF9008950F931F93CF93DF9300D01C
:1011700000D000D0CDB7DEB78C010E94580669E7D9
:1011800072E082E792E00E94641262E771E0CE01B1
:1011900001960E94FF1328EE33E040E050E0BE01CC
:1011A0006F5F7F4FC8010E945708182FCE0101962C
:1011B0000E949113812F26960FB6F894DEBF0FBEC2
:1011C000CDBFDF91CF911F910F9108950C94B3087B
:1011D0000F931F93CF93DF9300D000D000D0CDB7F3
:1011E000DEB78C010E94580662E772E082E792E067
:1011F0000E94641262E771E0CE0101960E94FF1323
:1012000028EE33E040E050E0BE016F5F7F4FC80141
:101210000E945708182FCE0101960E949113812F2A
:1012200026960FB6F894DEBF0FBECDBFDF91CF91EB
:101230001F910F910895CF92DF92EF92FF92CF937B
:10124000DF93EC010E94E808882349F160ED77E024
:1012500080E090E00E94A1150E9472156B017C0154
:101260000E9472156C197D098E099F09683B7B40AD
:1012700081059105A0F4CE010E94B308882341F0B6
:101280006CED75E080E090E00E94A11581E008C05F
:1012900064E670E080E090E00E94A115E1CF80E07C
:1012A000DF91CF91FF90EF90DF90CF9008950F9353
:1012B0001F93CF93DF9300D000D000D0CDB7DEB71F
:1012C0008C010E9458066AE072E082E792E00E9478
:1012D000641262E771E0CE0101960E94FF1328E8D4
:1012E00033E140E050E0BE016F5F7F4FC8010E94D4
:1012F0005708182FCE0101960E949113812F269630
:101300000FB6F894DEBF0FBECDBFDF91CF911F9116
:101310000F9108950C9457092F923F924F925F922C
:101320006F927F928F929F92AF92BF92CF92DF92F5
:10133000EF92FF920F931F93CF93DF93CDB7DEB75A
:1013400062970FB6F894DEBF0FBECDBF2C013B01F4
:101350004A011901580161E471E0CE010D960E9425
:10136000FF13B301CE0107960E942C14970186014A
:10137000AE01495F5F4FB201CE0101960E940A089B
:10138000BE016F5F7F4FCE010D960E941514CE01F6
:1013900001960E949113CE0107960E9491136CE76B
:1013A00072E083E592E00E946412BE01635F7F4FAA
:1013B00083E592E00E947612B301CE010D960E9461
:1013C000C4140196B1F1B401CE010D960E94C4146B
:1013D0002C01662457FC6094762CB101CE010D9649
:1013E0000E94C414EFEF4E165E066E067E0609F1EB
:1013F0008F3FFFEF9F07E9F0F40124813581B301AE
:10140000A201420F531F611D711D9C01BE01635F4C
:101410007F4FCE0101960E94C814BE016F5F7F4FBF
:10142000C5010E941514CE0101960E94911311E08E
:1014300006C061E471E0C5010E94351410E0CE01E0
:101440000D960E949113812F62960FB6F894DEBF1D
:101450000FBECDBFDF91CF911F910F91FF90EF9005
:10146000DF90CF90BF90AF909F908F907F906F90C4
:101470005F904F903F902F900895AF92BF92CF9280
:10148000DF92EF92FF920F931F93CF93DF93CDB72D
:10149000DEB762970FB6F894DEBF0FBECDBF5C011A
:1014A0008B010E9458066BE672E082E792E00E9490
:1014B000641260E771E0CE0101960E94FF136AE6B4
:1014C00071E0CE0107960E94FF1362E771E0CE0142
:1014D0000D960E94FF1388EEC82E83E0D82EE12CD3
:1014E000F12C9E012F5F3F4FAE01495F5F4FBE0160
:1014F000635F7F4FC5010E948C09182FCE010D96A6
:101500000E949113CE0107960E949113CE0101967D
:101510000E949113812F62960FB6F894DEBF0FBE22
:10152000CDBFDF91CF911F910F91FF90EF90DF9092
:10153000CF90BF90AF9008950F931F93CF93DF93F9
:10154000EC018B0161E471E00E94FF13BE01C80150
:101550000E943D0ACE01DF91CF911F910F91089516
:101560008F929F92AF92BF92CF92DF92EF92FF92B3
:101570000F931F93CF93DF93CDB7DEB768970FB666
:10158000F894DEBF0FBECDBF4C015B0161E471E09A
:10159000CE0143960E94FF13A114B10411F410E090
:1015A00047C0C4010E94580660E672E082E792E0FC
:1015B0000E9464126EE671E0CE0101960E94FF1354
:1015C00065E771E0CE0107960E94FF1362E771E0C4
:1015D000CE010D960E94FF1398EEC92E93E0D92EEE
:1015E000E12CF12C8E010D5E1F4F9E012F5F3F4FAE
:1015F000AE01495F5F4FBE01635F7F4FC4010E9430
:101600008C09182FCE010D960E949113CE010796DA
:101610000E949113CE0101960E949113112309F4A7
:10162000BECFCE0143960E940D15F501608311E0F7
:10163000CE0143960E949113812F68960FB6F894BD
:10164000DEBF0FBECDBFDF91CF911F910F91FF90F5
:10165000EF90DF90CF90BF90AF909F908F900895C4
:10166000AF92BF92CF92DF92EF92FF920F931F93B0
:10167000CF93DF93CDB7DEB762970FB6F894DEBF96
:101680000FBECDBF5C018B0164E670E080E090E0AE
:101690000E94A115C5010E94580667E372E082E727
:1016A00092E00E94641264EF71E080E090E00E949A
:1016B000A1156EE671E0CE0101960E94FF136AE665
:1016C00071E0CE0107960E94FF1362E771E0CE0140
:1016D0000D960E94FF1348EEC42E43E0D42EE12C59
:1016E000F12C9E012F5F3F4FAE01495F5F4FBE015E
:1016F000635F7F4FC5010E948C09182FCE010D96A4
:101700000E949113CE0107960E949113CE0101967B
:101710000E949113812F62960FB6F894DEBF0FBE20
:10172000CDBFDF91CF911F910F91FF90EF90DF9090
:10173000CF90BF90AF9008950F931F93CF93DF93F7
:10174000EC018B0161E471E00E94FF13BE01C8014E
:101750000E94300BCE01DF91CF911F910F91089520
:101760004F925F926F927F928F929F92AF92BF92B1
:10177000CF92DF92EF92FF920F931F93CF93DF935D
:10178000EC014A0159012701380161E471E00E942E
:10179000FF130E9472156B017C010E9472156C1977
:1017A0007D098E099F096415750586059705F0F476
:1017B00082E792E00E940C10181619065CF482E78A
:1017C00092E00E942010882399F3682FCE010E9496
:1017D0007914EECFB401CE010E94C414019631F405
:1017E000B501CE010E94C4140196B9F2CE01DF9179
:1017F000CF911F910F91FF90EF90DF90CF90BF900E
:10180000AF909F908F907F906F905F904F900895D2
:10181000CF92DF92EF92FF920F931F93CF93DF93BC
:10182000CDB7DEB768970FB6F894DEBF0FBECDBF59
:101830006C01162F61E471E0CE0143960E94FF1304
:10184000C6010E94580665E572E082E792E00E94B8
:1018500026124AE050E0612F82E792E00E94621374
:101860006EE771E0CE0107960E94FF1362E771E018
:10187000CE010D960E94FF1318EEE12E13E0F12E1B
:1018800000E010E09E01295F3F4FAE01435F5F4FD4
:10189000B601CE0101960E94B00BBE016F5F7F4F73
:1018A000CE0143960E941514CE0101960E94911319
:1018B000CE010D960E949113CE0107960E949113BE
:1018C00062E771E0CE0107960E94FF13BE01695FD7
:1018D0007F4FCE0143960E94C4140196B1F46EE787
:1018E00071E0CE0101960E94FF13BE016F5F7F4F32
:1018F000CE0143960E94C41411E0019609F410E051
:10190000CE0101960E94911301C011E0CE0107960D
:101910000E949113CE0143960E949113812F6896E5
:101920000FB6F894DEBF0FBECDBFDF91CF911F91F0
:101930000F91FF90EF90DF90CF900895FF920F935B
:101940001F93CF93DF931F92CDB7DEB78C01BE01FB
:101950006F5F7F4F0E94B00AF82E882379F089814B
:10196000833061F063E0C8010E94080C882329F0ED
:10197000C8010E941B09811101C0F12C8F2D0F900D
:10198000DF91CF911F910F91FF900895CF92DF9239
:10199000EF92FF920F931F93CF93DF93CDB7DEB7F4
:1019A00068970FB6F894DEBF0FBECDBF6C018B01F8
:1019B0007A0161E471E0CE0143960E94FF13C601F3
:1019C0000E9458066AE472E082E792E00E942612C2
:1019D000B80182E792E00E944B1266E472E082E76F
:1019E00092E00E942612B70182E792E00E944B1219
:1019F00064E472E082E792E00E94641268E871E0B9
:101A0000CE0107960E94FF1362E771E0CE010D96AA
:101A10000E94FF1310E2E12E1EE4F12E00E010E020
:101A20009E01295F3F4FAE01435F5F4FB601CE017C
:101A300001960E94B00BBE016F5F7F4FCE014396AF
:101A40000E941514CE0101960E949113CE010D96AD
:101A50000E949113CE0107960E94911362E771E0F4
:101A6000CE0101960E94FF13BE016F5F7F4FCE0132
:101A700043960E94C4148C01CE0101960E949113DA
:101A8000CE0143960E94911381E00F3F1F4F09F44E
:101A900080E068960FB6F894DEBF0FBECDBFDF9131
:101AA000CF911F910F91FF90EF90DF90CF9008950D
:101AB000EF92FF920F931F93CF93DF93CDB7DEB7D3
:101AC0002C970FB6F894DEBF0FBECDBF8C017B0103
:101AD000BA01CE0101960E942C14B701CE010796DF
:101AE0000E942C14AE014F5F5F4FBE01695F7F4FB4
:101AF000C8010E94C60C182FCE0107960E949113B0
:101B0000CE0101960E949113812F2C960FB6F89466
:101B1000DEBF0FBECDBFDF91CF911F910F91FF9020
:101B2000EF900895CF92DF92EF92FF920F931F9361
:101B3000CF93DF93CDB7DEB768970FB6F894DEBFCB
:101B40000FBECDBF6C01162F61E471E0CE0143964C
:101B50000E94FF13C6010E9458066FEF71E082E7F2
:101B600092E00E9426124AE050E0612F82E792E064
:101B70000E9462136FE971E0CE0107960E94FF1385
:101B800062E771E0CE010D960E94FF1318EEE12E80
:101B900013E0F12E00E010E09E01295F3F4FAE01FF
:101BA000435F5F4FB601CE0101960E94B00BBE01AC
:101BB0006F5F7F4FCE0143960E941514CE010196B0
:101BC0000E949113CE010D960E949113CE010796AB
:101BD0000E94911362E771E0CE0101960E94FF130B
:101BE000BE016F5F7F4FCE0143960E94C4146C010B
:101BF000CE0101960E949113CE0143960E9491134B
:101C000081E0CD20C09409F480E068960FB6F89486
:101C1000DEBF0FBECDBFDF91CF911F910F91FF901F
:101C2000EF90DF90CF90089560E00C94920D4F926A
:101C30005F926F927F928F929F92AF92BF92CF925C
:101C4000DF92EF92FF920F931F93CF93DF93EC01FC
:101C50005A01490161E471E00E94FF130E9472156C
:101C60002B013C010E9472156419750986099709B8
:101C70006C157D058E059F0520F582E792E00E9498
:101C80000C10181619065CF482E792E00E942010EE
:101C9000882399F3682FCE010E947914EECFB50105
:101CA000CE010E94C414019661F4B401CE010E94D9
:101CB000C414019631F4B801CE010E94C4140196F7
:101CC00089F2CE01DF91CF911F910F91FF90EF909C
:101CD000DF90CF90BF90AF909F908F907F906F904C
:101CE0005F904F9008956F927F928F929F92AF92E4
:101CF000BF92CF92DF92EF92FF920F931F93CF93F9
:101D0000DF93CDB7DEB76E970FB6F894DEBF0FBE88
:101D1000CDBF5C014B013A016801790161E471E0DA
:101D2000CE0149960E94FF13C5010E94580669E240
:101D300072E082E792E00E942612B40182E792E00C
:101D40000E944B1265E272E082E792E00E94261246
:101D5000B30182E792E00E944B1262E272E082E7F6
:101D600092E00E9426122AE030E0B701A60182E745
:101D700092E00E9479136DEA71E0CE0107960E940D
:101D8000FF136DE871E0CE010D960E94FF1362E72C
:101D900071E0CE0143960E94FF1310E1C12E17E2BD
:101DA000D12EE12CF12C8E01095F1F4F9E01235F84
:101DB0003F4FAE014D5E5F4FB501CE0101960E94CF
:101DC000170EBE016F5F7F4FCE0149960E9415141A
:101DD000CE0101960E949113CE0143960E94911369
:101DE000CE010D960E949113C8010E94911362E7E3
:101DF00071E0C8010E94FF13B801CE0149960E940C
:101E0000C4140196B1F46DEA71E0CE0101960E940E
:101E1000FF13BE016F5F7F4FCE0149960E94C4142D
:101E200011E0019609F410E0CE0101960E94911391
:101E300001C011E0CE0107960E949113CE01499690
:101E40000E949113812F6E960FB6F894DEBF0FBEDD
:101E5000CDBFDF91CF911F910F91FF90EF90DF9059
:101E6000CF90BF90AF909F908F907F906F9008958C
:101E7000EF92FF920F931F93CF93DF93CDB7DEB70F
:101E800060970FB6F894DEBF0FBECDBF7C01CE01C8
:101E900001962D873E874F87588B0E942C146DEB3F
:101EA00071E0CE0107960E94FF132D853E854F8578
:101EB000588989019A01AE014F5F5F4FBE01695F8A
:101EC0007F4FC7010E94730EF82ECE0107960E9425
:101ED0009113CE0101960E9491138F2D60960FB63B
:101EE000F894DEBF0FBECDBFDF91CF911F910F9150
:101EF000FF90EF9008954F925F926F927F928F9232
:101F00009F92AF92BF92CF92DF92EF92FF920F9388
:101F10001F93CF93DF9300D000D000D0CDB7DEB7B2
:101F20005C017B0129013A010E94580666E172E0DA
:101F300082E792E00E9426122AE030E0B301A2017B
:101F400082E792E00E94791365EC71E0CE01019680
:101F50000E94FF1328E833E140E050E0BE016F5FCC
:101F60007F4FC5010E945708182FCE0101960E948D
:101F700091131123B1F1C5010E9458068701C12CAC
:101F8000D12C7601C414D504E604F704A1F048016D
:101F9000F80161918F0182E792E00E948110F401C3
:101FA000608183E592E00E94DA03FFEFCF1ADF0A37
:101FB000EF0AFF0AE7CF67EC71E0CE0101960E94BD
:101FC000FF1320E137E240E050E0BE016F5F7F4F3A
:101FD000C5010E945708182FCE0101960E94911347
:101FE00001C010E0812F26960FB6F894DEBF0FBE19
:101FF000CDBFDF91CF911F910F91FF90EF90DF90B8
:10200000CF90BF90AF909F908F907F906F905F9098
:102010004F9008950C947B0FFC01818D928D891B4C
:1020200090E00895FC01918D828D981731F0828D9A
:10203000E80FF11D858D90E008958FEF9FEF0895D3
:10204000FC01918D828D981759F0828DDF01A80FC8
:10205000B11D5D968C91928D9F5F928F90E0089557
:102060008FEF9FEF08958BE991E1892B49F080E094
:1020700090E0892B29F00E949B1181110C940000A3
:102080000895FC01848DDF01A80FB11DA35EBE4F32
:102090002C91848D8F5F848FA689B7892C93A0891A
:1020A000B1898C9180648C93938D848D981306C034
:1020B0000288F389E02D80818F7D80830895CF93FE
:1020C000DF93EC01888D8823C9F0EA89FB89808140
:1020D00085FD05C0A889B9898C9186FD0FC00FB612
:1020E00007FCF5CF808185FFF2CFA889B9898C9153
:1020F00085FFEDCFCE010E944110E7CFDF91CF9158
:102100000895CF92DF92FF920F931F93CF93DF93A7
:102110001F92CDB7DEB76C0181E0D60158968C9343
:1021200058975B969C915B975C968C915C97981303
:1021300007C05096ED91FC915197808185FD2AC092
:10214000F601038D0F5FF02EF601848DF81211C099
:102150000FB607FCF9CFD6015096ED91FC9151973F
:10216000808185FFF1CFC60169830E94411069819A
:10217000EBCF838DE80FF11DE35EFE4F6083D60148
:102180005B960C935B975296ED91FC9153978081EF
:1021900080620CC0D6015696ED91FC9157976083F2
:1021A0005096ED91FC91519780818064808381E00D
:1021B00090E00F90DF91CF911F910F91FF90DF90F2
:1021C000CF900895BF92CF92DF92EF92FF92CF937C
:1021D000DF93EC016A017B01B22EE889F98982E084
:1021E0008083411581EE580761057105A1F060E01B
:1021F00079E08DE390E0A70196010E94B11621508D
:10220000310941095109569547953795279521156B
:1022100080E1380798F0E889F989108260E874E86D
:102220008EE190E0A70196010E94B116215031097C
:10223000410951095695479537952795EC85FD85B8
:102240003083EE85FF852083188EEC89FD89B0826E
:10225000EA89FB89808180618083EA89FB898081AA
:1022600088608083EA89FB89808180688083EA892D
:10227000FB8980818F7D8083DF91CF91FF90EF90EC
:10228000DF90CF90BF9008951F920F920FB60F92DC
:1022900011242F938F939F93EF93FF93E0918202EA
:1022A000F09183028081E0918802F091890282FDA1
:1022B00011C0908180918B028F5F20918C028217D8
:1022C00051F0E0918B02F0E0EE58FD4F958F809336
:1022D0008B0201C08081FF91EF919F918F912F918F
:1022E0000F900FBE0F901F9018951F920F920FB670
:1022F0000F9211242F933F934F935F936F937F938C
:102300008F939F93AF93BF93EF93FF9382E792E0F6
:102310000E944110FF91EF91BF91AF919F918F91DA
:102320007F916F915F914F913F912F910F900FBED1
:102330000F901F90189582E792E00E940C1021E008
:10234000892B09F420E0822F0895109275021092D3
:10235000740288EE93E0A0E0B0E080937602909360
:102360007702A0937802B093790283ED91E0909385
:1023700073028093720285EC90E090937F028093C9
:102380007E0284EC90E0909381028093800280EC46
:1023900090E0909383028093820281EC90E090938E
:1023A00085028093840282EC90E090938702809370
:1023B000860286EC90E090938902809388021092C6
:1023C0008B0210928C0210928D0210928E02089550
:1023D000CF92DF92EF92FF920F931F93CF93DF93F1
:1023E0006C017A01EB01E60EF71E00E010E0CE155D
:1023F000DF0561F06991D601ED91FC910190F081CA
:10240000E02DC6010995080F191FF1CFC801DF9112
:10241000CF911F910F91FF90EF90DF90CF90089593
:102420006115710581F0DB010D900020E9F7AD0128
:1024300041505109461B570BDC01ED91FC91028084
:10244000F381E02D099480E090E00895EF92FF92EF
:102450000F931F93CF93DF938C01FB01C0E0D0E07B
:1024600064917F018FEFE81AF80A662361F0D801C2
:10247000ED91FC910190F081E02DC8010995C80F04
:10248000D91FF701EDCFCE01DF91CF911F910F91B1
:10249000FF90EF900895DC01ED91FC91DB01149623
:1024A0004D915C9115976D917C910280F381E02DA7
:1024B0000994DC01ED91FC910190F081E02D0994EB
:1024C0006FE371E00C9410120F931F93CF93DF937F
:1024D000EC010E9426128C01CE010E946012800F36
:1024E000911FDF91CF911F910F9108950F931F932B
:1024F000CF93DF93EC010E944B128C01CE010E941E
:102500006012800F911FDF91CF911F910F9108955D
:102510000F931F93CF93DF93EC010E9410128C0155
:10252000CE010E946012800F911FDF91CF911F9109
:102530000F9108958F929F92AF92BF92CF92DF92A8
:10254000EF92FF920F931F93CF93DF93CDB7DEB738
:10255000A1970FB6F894DEBF0FBECDBF7C01C42E8D
:10256000E52FCB01D22E19A221E02D1510F02AE083
:10257000D22E8E010F5D1F4F8D2C912CA12CB12CD2
:102580006C2D7E2FA50194010E94B1168C2DD29E38
:1025900080191124015011098A3014F4805D01C0A2
:1025A000895CF8018083211531054105510521F031
:1025B000C22EE32FCA01E4CFB801C7010E94101256
:1025C000A1960FB6F894DEBF0FBECDBFDF91CF91BD
:1025D0001F910F91FF90EF90DF90CF90BF90AF9041
:1025E0009F908F900895CF92DF92EF92FF920F937A
:1025F0001F93CF93DF93EC016A017B012115310515
:1026000079F4E881F9810190F081E02D642FDF9168
:10261000CF911F910F91FF90EF90DF90CF90099491
:102620002A303105E9F477FF1AC06DE20E94591291
:102630008C0144275527BA014C195D096E097F09A1
:102640002AE0CE010E949A12800F911FDF91CF9154
:102650001F910F91FF90EF90DF90CF9008952AE0A7
:10266000B701A601CE01DF91CF911F910F91FF908D
:10267000EF90DF90CF900C949A120F931F93CF930B
:10268000DF93EC019A01AB01662757FD6095762F29
:102690000E94F3128C01CE010E946012800F911FE4
:1026A000DF91CF911F910F9108952115310541F4CC
:1026B000DC01ED91FC910190F081E02D642F0994F3
:1026C0000C949A120F931F93CF93DF93EC019A010E
:1026D000462F50E060E070E00E9455138C01CE015F
:1026E0000E946012800F911FDF91CF911F910F9177
:1026F00008950F931F93CF93DF93EC010E9455131E
:102700008C01CE010E946012800F911FDF91CF914A
:102710001F910F910895FC0144835583668377834D
:102720000895FC01808191810C94A417CF93DF93CD
:10273000EC0188819981009711F00E94A4171982F9
:1027400018821D821C821B821A82DF91CF9108950C
:102750000F931F93CF93DF93EC018B016F5F7F4F3C
:10276000888199810E943318009731F0998388837A
:102770001B830A8381E001C080E0DF91CF911F912C
:102780000F910895CF93DF93EC0188819981892B74
:1027900029F08A819B818617970760F4CE010E94F9
:1027A000A813882341F08C819D81892B19F4E8813D
:1027B000F981108281E0DF91CF910895EF92FF922D
:1027C0000F931F93CF93DF93EC017B018A01BA0132
:1027D0000E94C213811104C0CE010E94961307C04B
:1027E0001D830C83B701888199810E943819CE011D
:1027F000DF91CF911F910F91FF90EF900895FC0111
:102800001182108213821282158214826115710561
:1028100059F0FB0101900020E9F7AF014150510947
:10282000461B570B0C94DE130895CF93DF93EC01F6
:10283000FB018617970761F0608171816115710551
:1028400029F0448155810E94DE1302C00E94961334
:10285000CE01DF91CF910895FC0111821082138285
:102860001282158214820C941514CF93DF93EC011D
:102870006115710561F0FB0101900020E9F7AF01DE
:1028800041505109461B570B0E94DE1302C00E94A3
:102890009613CE01DF91CF910895EF92FF920F939F
:1028A0001F93CF93DF93EC017B010C811D81611598
:1028B000710511F480E016C04115510591F0040F27
:1028C000151FB8010E94C2138823A1F32881398102
:1028D0008C819D81B701820F931F0E9438191D833F
:1028E0000C8381E0DF91CF911F910F91FF90EF90CA
:1028F0000895CF93DF9300D0CDB7DEB769831A82F6
:1029000041E050E0BE016F5F7F4F0E944D140F9079
:102910000F90DF91CF910895CF93DF93FC018481D5
:1029200095814817590778F4C081D181772767FDD1
:102930007095CE01840F951F0E942D19009719F0F4
:102940008C1B9D0B02C08FEF9FEFDF91CF910895FD
:10295000CF93DF93FC01848195814817590778F460
:10296000C081D181FB0160817181CE01840F951FEF
:102970000E943F19009719F08C1B9D0B02C08FEF2E
:102980009FEFDF91CF91089540E050E00C94A814A0
:10299000BF92CF92DF92EF92FF920F931F93CF934C
:1029A000DF936C017B01EA0189012417350720F4CC
:1029B0008D2FE901042F182F61E471E0C6010E94F8
:1029C000FF13D70114968D919C911597C817D907BD
:1029D000C8F48017910708F48C01D701ED91FC91A0
:1029E0001197E00FF11FB08010826D917C916C0FF8
:1029F0007D1FC6010E943514D701ED91FC91E00FB7
:102A0000F11FB082C601DF91CF911F910F91FF900E
:102A1000EF90DF90CF90BF900895FC01808191816D
:102A2000009711F00C94FD1860E070E0CB01089560
:102A300008950E94C9150E9418150E94F701C3E36A
:102A4000D0E10E9467022097E1F30E943310F9CF92
:102A50001F920F920FB60F9211242F933F938F93D3
:102A60009F93AF93BF938091900490919104A09114
:102A70009204B091930430918F0423E0230F2D37FB
:102A800020F40196A11DB11D05C026E8230F029672
:102A9000A11DB11D20938F04809390049093910405
:102AA000A0939204B0939304809194049091950420
:102AB000A0919604B09197040196A11DB11D809339
:102AC000940490939504A0939604B0939704BF91B7
:102AD000AF919F918F913F912F910F900FBE0F90CB
:102AE0001F9018952FB7F8946091900470919104FD
:102AF00080919204909193042FBF08953FB7F8946A
:102B00008091940490919504A0919604B0919704BB
:102B100026B5A89B05C02F3F19F00196A11DB11D38
:102B20003FBF6627782F892F9A2F620F711D811D55
:102B3000911D42E0660F771F881F991F4A95D1F7B4
:102B40000895CF92DF92EF92FF92CF93DF936B01C4
:102B50007C010E947E15EB01C114D104E104F10453
:102B600089F00E949C160E947E156C1B7D0B683EAE
:102B7000734090F381E0C81AD108E108F108C85108
:102B8000DC4FEACFDF91CF91FF90EF90DF90CF90B5
:102B90000895789484B5826084BD84B5816084BDD5
:102BA00085B5826085BD85B5816085BDEEE6F0E0C6
:102BB000808181608083E1E8F0E010828081826022
:102BC0008083808181608083E0E8F0E080818160A3
:102BD0008083E1EBF0E0808184608083E0EBF0E0D3
:102BE000808181608083EAE7F0E080818460808377
:102BF0008081826080838081816080838081806821
:102C000080831092C1000895833081F028F48130D0
:102C100099F08230A1F008958730A9F08830B9F09A
:102C20008430D1F4809180008F7D03C0809180003A
:102C30008F7780938000089584B58F7702C084B524
:102C40008F7D84BD08958091B0008F7703C08091FF
:102C5000B0008F7D8093B0000895CF93DF9390E014
:102C6000FC01EE53FD4F2491FC01EA52FD4F84918B
:102C7000882349F190E0880F991FFC01E250FD4F35
:102C8000A591B4918C509D4FFC01C591D4919FB7F3
:102C9000611108C0F8948C91209582238C938881CF
:102CA00082230AC0623051F4F8948C91322F30950F
:102CB00083238C938881822B888304C0F8948C9121
:102CC000822B8C939FBFDF91CF9108950F931F9319
:102CD000CF93DF931F92CDB7DEB7282F30E0F901F5
:102CE000E255FD4F8491F901EE53FD4F1491F90126
:102CF000EA52FD4F04910023C9F0882321F0698333
:102D00000E9404166981E02FF0E0EE0FFF1FEC50E7
:102D1000FD4FA591B4919FB7F8948C91611103C0B8
:102D20001095812301C0812B8C939FBF0F90DF9161
:102D3000CF911F910F910895089597FB072E16F4D8
:102D4000009407D077FD09D00E94F21607FC05D049
:102D50003EF4909581959F4F0895709561957F4FB2
:102D60000895A1E21A2EAA1BBB1BFD010DC0AA1FCC
:102D7000BB1FEE1FFF1FA217B307E407F50720F0E4
:102D8000A21BB30BE40BF50B661F771F881F991F5F
:102D90001A9469F760957095809590959B01AC01A8
:102DA000BD01CF010895052E97FB1EF400940E94EB
:102DB000EA1657FD07D00E94B11607FC03D04EF467
:102DC0000C94EA1650954095309521953F4F4F4F02
:102DD0005F4F089590958095709561957F4F8F4FC7
:102DE0009F4F0895AA1BBB1B51E107C0AA1FBB1F21
:102DF000A617B70710F0A61BB70B881F991F5A9587
:102E0000A9F780959095BC01CD010895EE0FFF1FA5
:102E10000590F491E02D0994CF93DF9382309105D2
:102E200010F482E090E0E0919A04F0919B0420E09D
:102E300030E0A0E0B0E0309739F14081518148178F
:102E40005907B8F04817590771F482819381109798
:102E500029F013969C938E9312972CC090939B0409
:102E600080939A0427C02115310531F0421753078A
:102E700018F0A901DB0101C0EF019A01BD01DF01DA
:102E80000280F381E02DD7CF21153105F9F0281B01
:102E9000390B2430310580F48A819B8161157105DD
:102EA00021F0FB019383828304C090939B04809361
:102EB0009A04FE01329644C0FE01E20FF31F819393
:102EC000919322503109398328833AC02091980484
:102ED00030919904232B41F4209102013091030198
:102EE00030939904209398042091000130910101BE
:102EF0002115310541F42DB73EB7409104015091A1
:102F00000501241B350BE0919804F0919904E21718
:102F1000F307A0F42E1B3F0B2817390778F0AC01FC
:102F20004E5F5F4F2417350748F04E0F5F1F5093D9
:102F30009904409398048193919302C0E0E0F0E0FB
:102F4000CF01DF91CF910895CF93DF93009709F4DC
:102F500087C0FC01329713821282C0919A04D091EB
:102F60009B04209781F420813181280F391F8091A3
:102F70009804909199048217930779F5F093990436
:102F8000E09398046DC0DE0120E030E0AE17BF078B
:102F900050F412964D915C9113979D014115510586
:102FA00009F1DA01F3CFB383A28340815181840F09
:102FB000951F8A179B0771F48D919C911197840F2F
:102FC000951F02969183808312968D919C91139701
:102FD000938382832115310529F4F0939B04E093B8
:102FE0009A043EC0D9011396FC93EE9312974D912B
:102FF0005D91A40FB51FEA17FB0779F480819181D9
:10300000840F951F0296D90111969C938E9382810D
:10301000938113969C938E931297E0E0F0E08A815F
:103020009B81009719F0FE01EC01F9CFCE010296C9
:1030300028813981820F931F20919804309199043F
:103040002817390769F4309729F410929B041092DD
:103050009A0402C013821282D0939904C0939804F8
:10306000DF91CF910895A0E0B0E0E9E3F8E10C949E
:103070007219EC01CB01209719F40E940C17B8C00B
:10308000FE01E60FF71F9E0122503109E217F307F8
:1030900008F4ACC0D9010D911C91119706171707C0
:1030A000B8F00530110508F49FC0A801445051093B
:1030B0004617570708F498C002501109061B170B52
:1030C000019311936D937C93CF010E94A4178CC040
:1030D0005B01A01AB10A4E01800E911EA0919A04C4
:1030E000B0919B04612C712C60E070E0109709F4A2
:1030F00049C0A815B905C9F5ED90FC901197670175
:1031000042E0C40ED11CCA14DB0478F147018A18CE
:103110009B08640142E0C40ED11C1296BC90129729
:103120001396AC91B5E0CB16D10440F0B282A383E4
:1031300091828082D9018D939C9309C00E5F1F4FAD
:103140000E0D1F1DF90111830083EB2DFA2F611560
:10315000710531F0DB011396FC93EE93129744C096
:10316000F0939B04E0939A043FC06D917C9111977A
:103170006616770608F43B01BD0112960D90BC91CE
:10318000A02DB4CF609198047091990468157905C9
:10319000E9F468167906D0F44091000150910101DC
:1031A0004115510541F44DB75EB76091040170912E
:1031B0000501461B570BE417F507C0F4F09399047B
:1031C000E0939804F901918380830EC00E940C174C
:1031D0007C01009759F0A801BE010E942419CE017C
:1031E0000E94A417C70104C0CE0102C080E090E095
:1031F000CDB7DEB7EEE00C948E191F93FC01992732
:103200008827BC01E89411911032E9F3193010F0CD
:103210001E30C8F31B3251F01D3249F4689406C0C9
:103220000E945919610F711D811D911D119110533B
:103230001A30B0F33EF490958095709561957F4F6C
:103240008F4F9F4F1F910895FB01DC0102C0019039
:103250000D9241505040D8F70895FC018191861796
:1032600021F08823D9F7992708953197CF01089540
:10327000FB01DC0101900D920020E1F70895FB01B4
:1032800051915523A9F0BF01DC014D914517411122
:10329000E1F759F4CD010190002049F04D9140151E
:1032A0004111C9F3FB014111EFCF81E090E001979B
:1032B0000895592F482F372F262F660F771F881F05
:1032C000991F660F771F881F991F620F731F841F36
:1032D000951F660F771F881F991F08952F923F92A1
:1032E0004F925F926F927F928F929F92AF92BF9216
:1032F000CF92DF92EF92FF920F931F93CF93DF93C2
:10330000CDB7DEB7CA1BDB0B0FB6F894DEBF0FBE1E
:10331000CDBF09942A88398848885F846E847D846B
:103320008C849B84AA84B984C884DF80EE80FD806D
:103330000C811B81AA81B981CE0FD11D0FB6F894E3
:10334000DEBF0FBECDBFED01089513E0CEE0D3E0A8
:1033500004C0FE010E9408172296C231D107C9F7A6
:04336000F894FFCF0F
:1033640000009C048000483231303437304338390F
:1033740039353736424400484F4D452D44453138A0
:103384000031302E302E302E313200474554202F5C
:1033940070696E6720485454502F312E300D0A0D39
:1033A4000A005354415455533A330000000000DAE4
:1033B40003E8114604B9032C045E042B4950442C41
:1033C40000476F742064617461000D0D0A000D0ADA
:1033D4000D0A4F4B002B43574D4F44453A006E6F37
:1033E400206368616E6765004641494C004552524E
:1033F4004F52006C696E6B206973206E6F74004CC1
:10340400696E6B206973206275696C7400414C525B
:103414004541445920434F4E4E4543540054435074
:1034240000554450003E0053454E44204F4B00008D
:103434000000008110E8110C10201012105F106EB3
:0E344400616E00696E66006F7666002E0000F5
:00000001FF
