:100000000C948E000C94B6000C94B6000C948504ED
:100010000C9485040C9485040C94B6000C94B600E2
:100020000C94B6000C94B6000C94B6000C94B60078
:100030000C94B6000C94B6000C94B6000C94B60068
:100040000C94220A0C94B6000C9419070C944A07DD
:100050000C94B6000C94B6000C94B6000C94B60048
:100060000C94B6000C94B60007634236B79BD8A731
:100070001A39685618AEBAAB558C1D3CB7CC5763CD
:10008000BD6DEDFD753EF6177231BF000000803F7B
:10009000736574757020656E640D0A007365747500
:1000A0007020626567696E0D0A00206375725F6D6E
:1000B000696C6C69733A20000000000800020100BE
:1000C0000003040700000000000000000102040813
:1000D00010204080010204081020010204081020B2
:1000E00004040404040404040202020202020303DE
:1000F0000303030300000000230026002900000082
:100100000000250028002B0000000000240027002C
:100110002A001C0317067A0744031E0611241FBE7B
:10012000CFEFD8E0DEBFCDBF12E0A0E0B1E0EAE162
:10013000FFE102C005900D92A031B107D9F724E08C
:10014000A0E1B2E001C01D92AA3DB207E1F711E0C3
:10015000C8E1D1E004C02297FE010E947C0FC231A9
:10016000D107C9F70E94130A0C94800F0C94000069
:1001700023EB30E84EE253E40E941F0C24E230E50A
:100180004EEE51E40E94870C0C94F40C8F929F92D7
:10019000BF92CF92DF92EF92FF920F931F93CF9374
:1001A000DF93B82E4B018A01C12CD12C7601C0E01F
:1001B000D0E0C815D90564F48B2D0E94090BC80E38
:1001C000D91EE11CF11CC8010E94C30A2196F1CF7F
:1001D0009401442737FD4095542FC701B6010E9472
:1001E000470FC901DF91CF911F910F91FF90EF90C1
:1001F000DF90CF90BF909F908F90089520E030E0E7
:1002000040E050E06FEF70E08FE292E00C94520318
:1002100020E030E04FEF50E060E070E08FE292E0ED
:100220000C9452032FEF30E040E050E060E070E0CB
:100230008FE292E00C9452032FEF30E04FEF50E04A
:100240006FEF70E08FE292E00C94520320E030E018
:1002500040E050E060E070E08FE292E00C945203E6
:100260006AEA70E080E192E00E94FB070E946C0A5B
:10027000AB01BC012AE030E080E192E00C9413096C
:10028000CF93DF93C5E0D0E00E941C0164EF71E0E2
:1002900080E090E00E949B0A0E94260164EF71E0DA
:1002A00080E090E00E949B0A219771F70E94FE0077
:1002B00068EE73E080E090E00E949B0A0E940801D3
:1002C00068EE73E080E090E00E949B0A0E941201B9
:1002D00068EE73E080E090E00E949B0ADF91CF918E
:1002E0000C941C0160E08EE00E94AE0B61E08EE099
:1002F0000E94E70B61E080910A010E94AE0B61E071
:10030000809108010E94AE0B61E0809106010E947D
:10031000AE0B61E085E00E94AE0B61E085E00E94DB
:10032000E70B0E94400140E051EE60E070E080E1A8
:1003300092E00E9488056CE970E080E192E00E9402
:10034000FB0760E970E080E192E00E94FB070C94FB
:1003500030014F925F926F927F928F929F92AF92F5
:10036000BF92CF92DF92EF92FF920F931F93CF93A2
:10037000DF93CDB7DEB728970FB6F894DEBF0FBE78
:10038000CDBF45E050E064E670E08EE00E94C6001C
:100390008C0160E971E080E192E00E9420086091A8
:1003A0004F02709150024AE050E080E192E00E94DA
:1003B000FD0880914F02909150028017910720F420
:1003C0001093500200934F02B801882777FD809563
:1003D000982F0E94530D26E636E64EE950E40E941F
:1003E0009C0E20E030EC4FE754E40E94870C2B0178
:1003F0003C012AE939E949EF50E40E94870C20E0EA
:1004000030E04AE754E40E949C0E69837A838B8330
:100410009C8360914F0270915002882777FD8095F0
:10042000982F0E94530D26E636E64EE950E40E94CE
:100430009C0E20E030EC4FE754E40E94870C2AE940
:1004400039E949EF50E40E94870C20E030E04AE7A8
:1004500054E40E949C0E4B015C0129813A814B813E
:100460005C810E941E0C6D837E838F8398870E941F
:10047000B8006B017C0166E771E080E192E00E94C8
:1004800020084AE050E0B80180E192E00E94F708BD
:1004900069E971E080E192E00E94200822E030E00A
:1004A000B301A20180E192E00E94100A67EA71E0C4
:1004B00080E192E00E942D086DE971E080E192E018
:1004C0000E94200822E030E049815A816B817C81C2
:1004D00080E192E00E94100A66EA71E080E192E019
:1004E0000E942D0869EA71E080E192E00E942008F4
:1004F00060914F02709150024AE050E080E192E03A
:100500000E94F7086CEB71E080E192E00E94200805
:1005100022E030E0B501A40180E192E00E94100ADF
:1005200066EA71E080E192E00E942D0867EC71E0DC
:1005300080E192E00E94200822E030E04D815E815F
:100540006F81788580E192E00E94100A66EA71E08E
:1005500080E192E00E942D0865E671E080E192E082
:100560000E942008C701B6010E94200D4AE050E019
:1005700080E192E00E94E2086CEC71E080E192E0A0
:100580000E942D0820E030E04AEF53E4C701B60195
:100590000E94830C87FF06C060ED71E080E192E06D
:1005A0000E942D0820E030E04AEF53E4C701B60175
:1005B0000E94280E87FD10C020E030E04AE754E496
:1005C000C701B6010E94830C87FF06C066ED71E08B
:1005D00080E192E00E942D0820E030E04AE754E4F8
:1005E000C701B6010E94280E87FD06C06DED71E0BF
:1005F00080E192E00E942D0880E192E00E942908AB
:1006000068E873E180E090E028960FB6F894DEBFCA
:100610000FBECDBFDF91CF911F910F91FF90EF9053
:10062000DF90CF90BF90AF909F908F907F906F9012
:100630005F904F900C949B0A0F931F938EE492E06F
:100640000E94160626E046E164E08CE392E00E94F8
:100650002206209106013091070140910801509136
:10066000090160910A0170910B0101E010E08FE235
:1006700092E00E94480320E04CE06DE080E192E0CF
:100680001F910F910C94580580E192E00C94FF04A7
:10069000FC0171836083538342833583248381E02B
:1006A00084870895AF92BF92CF92DF92EF92FF922C
:1006B0000F931F93CF93DF93EC017B016A018901B4
:1006C0008C85882349F088810E94260BB6018A8197
:1006D0000E94260BB80112C0AA24AA94B12CB5011D
:1006E0006E197F0988810E94260BB5016C197D095E
:1006F0008A810E94260BB501601B710B8C810E94C0
:10070000260BFF82EE82D986C8861B870A87DF9177
:10071000CF911F910F91FF90EF90DF90CF90BF90FE
:10072000AF900895209193023091940228173907D1
:10073000B9F49091510280915202981789F0E0919A
:100740005102F0E0ED5AFD4F80812091510230E0DE
:100750002F5F3F4F2F7333272093510290E008956E
:100760008FEF9FEF08951F93CF93DF93DC015C968B
:100770008D919C915D97009749F481E090E01396EC
:100780009C938E93129780E090E03BC05196ED9140
:10079000FC91529750962C915097322F30951FB75D
:1007A0005E964C915E9741FB772770F941FD60950D
:1007B000F8944081772311F0422B01C043234083FA
:1007C000EC012197F1F748E0508160FF02C0522B05
:1007D00001C053235083EC012197F1F766954150F6
:1007E00099F78081772311F0832301C0822B8083C6
:1007F0001FBF5C968D919C915D970197F1F781E009
:1008000090E0DF91CF911F91089520919302309154
:1008100094022817390781F4909151028091520275
:10082000981751F0E0915102F0E0ED5AFD4F8081B0
:10083000992787FD909508958FEF9FEF0895209158
:100840009302309194022817390771F48091520273
:100850002091510290E0805C9F4F821B910960E4DF
:1008600070E00E94110F089580E090E008952091BB
:100870009302309194022817390739F48FB7F8940E
:1008800010925202109251028FBF0895E09193028C
:10089000F0919402E817F90769F4A389B4899C914F
:1008A0008589809589238C931092940210929302EB
:1008B00081E0089580E00895CF93DF93EC018A8D65
:1008C0009B8D892BF1F080919302909194028C176B
:1008D0009D07B9F0009711F00E9446048E8D8E7F1F
:1008E0008E8F1092520210925102D0939402C093B4
:1008F0009302EB89FC8980819D89892B808381E02B
:1009000001C080E0DF91CF9108951F920F920FB642
:100910000F9211242F933F934F935F936F937F9385
:100920008F939F93AF93BF93EF93FF93E0919302C5
:10093000F0919402309709F451C0868DA685B78551
:10094000958581FF04C08C91892329F447C08C913F
:10095000892309F043C0A389B4899C918589809536
:1009600089238C93868997890197F1F7208D318DA2
:10097000A685B785758558E040E0C9010197F1F774
:10098000842F90E095958795482F6C91672309F007
:100990004068515091F7868D81FD409580915202BB
:1009A00090E001968F73992720915102281749F002
:1009B000A0915202B0E0AD5ABD4F4C9380935202C9
:1009C00003C0868D8160868F828D938D0197F1F7AC
:1009D000A389B4898C919589892B8C93FF91EF9190
:1009E000BF91AF919F918F917F916F915F914F9147
:1009F0003F912F910F900FBE0F901F90189525EEED
:100A000031E0FC01318320830C9446041F93CF9383
:100A1000DF93EC01162F6E8D6695617081E068277B
:100A2000812F0E94E70B61E0812F0E94AE0B812F86
:100A300090E0FC01E453FF4FE491E88BFC01E052AD
:100A4000FF4FE491F0E0EE0FFF1FE250FF4F859162
:100A500094919A8B898BDF91CF911F9108951F9369
:100A6000CF93DF93EC01162F60E0812F0E94AE0B35
:100A70008E8D81FD04C061E0812F0E94E70B1C87F1
:100A8000812F90E0FC01E453FF4FE491ED87FC01DE
:100A9000E052FF4FE491F0E0EE0FFF1FEC50FF4FEC
:100AA000859194919F878E87DF91CF911F910895B3
:100AB000FF920F931F93CF93DF93EC01F62E522FEB
:100AC0001B821A8208EE13E020E030E00C831D83C5
:100AD0002E833F8385EE91E0998388831F8A1E8A47
:100AE000198E188E1B8E1A8E1D8E1C8E8E8D8E7FEB
:100AF00050FB81F98E8F642FCE010E9406056F2D69
:100B0000CE01DF91CF911F910F91FF900C942F0593
:100B1000CF93DF93EC019A01AB011B8E1A8E198ED5
:100B2000188E1F8A1E8A60E079E08DE390E00E94B3
:100B3000470FC9012430310520F0B9016350710914
:100B400002C061E070E07D8F6C8FEC85E63108F0CB
:100B500068C0B901769567956431710518F06351E5
:100B6000710902C061E070E07F8B6E8B069718F010
:100B7000C901059702C081E090E0998F888FC90173
:100B8000880F991F820F931F969587959695879545
:100B90008D30910510F00C9702C081E090E09B8FA2
:100BA0008A8F20916800E83050F091E0EE3008F430
:100BB00090E081E001C0880F9A95EAF701C084E0D7
:100BC000822B809368002C85283038F02E3040F03E
:100BD000263148F48CE690E008C08DE690E005C030
:100BE0008BE690E002C080E090E09C8B8B8B2830FD
:100BF00030F481E001C0880F2A95EAF70DC0822FFA
:100C000090E02E3010F4089701C00E9791E001C0DB
:100C1000990F8A95EAF7892F8D8B8C8D9D8D019781
:100C2000F1F7CE01DF91CF910C945C04089520E0A0
:100C30004CE06DE085E992E00C94580585E992E07E
:100C40000C94FF04DC0115966C93159716964C9343
:100C5000169770E0FB01E453FF4FE4911796EC9375
:100C60001797FB01E052FF4F649118966C93189709
:100C700040E85EE360E070E01D964D935D936D93F8
:100C80007C9350970895FC01818D928D891B90E093
:100C90000895FC01918D828D981731F0828DE80FB7
:100CA000F11D858D90E008958FEF9FEF0895FC0171
:100CB000918D828D981759F0828DDF01A80FB11D9B
:100CC0005D968C91928D9F5F928F90E008958FEF4B
:100CD0009FEF089580E797E0892B49F080E090E04E
:100CE000892B29F00E94700781110C94000008954F
:100CF000FC01848DDF01A80FB11DA35EBE4F2C91B6
:100D0000848D8F5F848FA689B7892C93A089B18940
:100D10008C9180648C93938D848D981306C0028887
:100D2000F389E02D80818F7D80830895CF93DF93B9
:100D3000EC01888D8823C9F0EA89FB89808185FDD3
:100D400005C0A889B9898C9186FD0FC00FB607FC34
:100D5000F5CF808185FFF2CFA889B9898C9185FF75
:100D6000EDCFCE010E947806E7CFDF91CF910895B5
:100D7000CF92DF92FF920F931F93CF93DF931F9237
:100D8000CDB7DEB76C0181E0D60158968C935897A9
:100D90005B969C915B975C968C915C97981307C0CF
:100DA0005096ED91FC915197808185FD2AC0F60106
:100DB000038D0F5FF02EF601848DF81211C00FB66F
:100DC00007FCF9CFD6015096ED91FC9151978081A7
:100DD00085FFF1CFC60169830E9478066981EBCF58
:100DE000838DE80FF11DE35EFE4F6083D6015B96B5
:100DF0000C935B975296ED91FC91539780818062A2
:100E00000CC0D6015696ED91FC9157976083509691
:100E1000ED91FC91519780818064808381E090E026
:100E20000F90DF91CF911F910F91FF90DF90CF90A6
:100E300008951F920F920FB60F9211242F938F9344
:100E40009F93EF93FF93E091C402F091C5028081DC
:100E5000E091CA02F091CB0282FD11C09081809195
:100E6000CD028F5F2091CE02821751F0E091CD022A
:100E7000F0E0EC54FD4F958F8093CD0201C080814E
:100E8000FF91EF919F918F912F910F900FBE0F9037
:100E90001F9018951F920F920FB60F9211242F9347
:100EA0003F934F935F936F937F938F939F93AF93F2
:100EB000BF93EF93FF9384EB92E00E947806FF913B
:100EC000EF91BF91AF919F918F917F916F915F91C2
:100ED0004F913F912F910F900FBE0F901F9018953B
:100EE00084EB92E00E94430621E0892B09F420E084
:100EF000822F08951092B7021092B60288EE93E006
:100F0000A0E0B0E08093B8029093B902A093BA0237
:100F1000B093BB0285EF91E09093B5028093B40249
:100F200085EC90E09093C1028093C00284EC90E045
:100F30009093C3028093C20280EC90E09093C5022C
:100F40008093C40281EC90E09093C7028093C60224
:100F500082EC90E09093C9028093C80286EC90E006
:100F60009093CB028093CA021092CD021092CE02CF
:100F70001092CF021092D0020895CF92DF92EF929A
:100F8000FF920F931F93CF93DF936C017A01EB01D4
:100F9000E60EF71E00E010E0CE15DF0561F0699166
:100FA000D601ED91FC910190F081E02DC6010995EB
:100FB000080F191FF1CFC801DF91CF911F910F9139
:100FC000FF90EF90DF90CF9008956115710581F04B
:100FD000DB010D900020E9F7AD0141505109461B9E
:100FE000570BDC01ED91FC910280F381E02D099417
:100FF00080E090E00895EF92FF920F931F93CF93BC
:10100000DF938C01FB01C0E0D0E064917F018FEFA2
:10101000E81AF80A662361F0D801ED91FC9101907D
:10102000F081E02DC8010995C80FD91FF701EDCF58
:10103000CE01DF91CF911F910F91FF90EF90089516
:101040000C94E507DC01ED91FC910190F081E02D1D
:10105000099469E471E00C94E5070F931F93CF9313
:10106000DF93EC010E94E5078C01CE010E94290864
:10107000800F911FDF91CF911F910F9108958F9253
:101080009F92AF92BF92CF92DF92EF92FF920F9317
:101090001F93CF93DF93CDB7DEB7A1970FB6F89428
:1010A000DEBF0FBECDBF7C01C42EE52FCB01D22EFB
:1010B00019A221E02D1510F02AE0D22E8E010F5D2D
:1010C0001F4F8D2C912CA12CB12C6C2D7E2FA501A6
:1010D00094010E94250F8C2DD29E8019112401505D
:1010E00011098A3014F4805D01C0895CF8018083A5
:1010F000211531054105510521F0C22EE32FCA010A
:10110000E4CFB801C7010E94E507A1960FB6F89495
:10111000DEBF0FBECDBFDF91CF911F910F91FF902A
:10112000EF90DF90CF90BF90AF909F908F900895F9
:10113000CF92DF92EF92FF920F931F93CF93DF93A3
:10114000EC016A017B012115310579F4E881F9810F
:101150000190F081E02D642FDF91CF911F910F91CD
:10116000FF90EF90DF90CF9009942A303105E9F499
:1011700077FF1AC06DE20E9422088C014427552790
:10118000BA014C195D096E097F092AE0CE010E945F
:101190003F08800F911FDF91CF911F910F91FF901A
:1011A000EF90DF90CF9008952AE0B701A601CE011D
:1011B000DF91CF911F910F91FF90EF90DF90CF9033
:1011C0000C943F089A01AB01662757FD6095762F76
:1011D0000C9498082115310541F4DC01ED91FC9146
:1011E0000190F081E02D642F09940C943F089A013E
:1011F000AB0160E070E00C94EA080F931F93CF936B
:10120000DF93EC019A01AB0160E070E00E94EA0814
:101210008C01CE010E942908800F911FDF91CF9190
:101220001F910F9108950F931F93CF93DF93EC01BC
:101230000E94EA088C01CE010E942908800F911FAC
:10124000DF91CF911F910F9108954F925F926F920E
:101250007F928F929F92AF92BF92CF92DF92EF9246
:10126000FF920F931F93CF93DF93EC016A017B01F1
:10127000B22E9A01AB01C701B6010E94FF0E88236E
:1012800019F061E072E027C026013701E89477F891
:101290002FEF3FEF4FE75FE7C301B2010E94FF0E60
:1012A00081110DC02FEF3FEF4FE75FE7C301B201A0
:1012B0000E94830C18161CF465E072E00CC02FEF3E
:1012C0003FEF4FE75FE4C701B6010E94280E1816F2
:1012D000ACF469E072E0CE01DF91CF911F910F91E4
:1012E000FF90EF90DF90CF90BF90AF909F908F9046
:1012F0007F906F905F904F900C94E5072FEF3FEF3A
:101300004FE75FECC701B6010E94830C87FDE1CF78
:1013100020E030E0A901C701B6010E94830C87FFDD
:101320000AC06DE2CE010E9422088C01F7FAF09407
:10133000F7F8F09402C000E010E0A12C60E070E04B
:1013400080E09FE3AB1441F020E030E040E251E464
:101350000E94870CA394F6CF9B01AC01C701B60194
:101360000E941F0C6B017C010E94250D2B013C018A
:101370000E94510D9B01AC01C701B6010E941E0CD9
:101380006B017C012AE0B301A201CE010E943F085B
:10139000080F191FBB2039F06DE072E0CE010E94EA
:1013A000E507080F191F7B2C772041F120E030E082
:1013B00040E251E4C701B6010E949C0E6B017C0122
:1013C0000E94200D4B01AA2497FCA094BA2C2AE07D
:1013D00030E0B501A401CE010E949808080F191F42
:1013E000C501B4010E94530D9B01AC01C701B601B8
:1013F0000E941E0C6B017C017A94D6CFC801DF914C
:10140000CF911F910F91FF90EF90DF90CF90BF9001
:10141000AF909F908F907F906F905F904F900895C6
:101420000C94250908950E94CE0A0E94120A0E9477
:101430007201CAE6D6E00E94A9012097E1F30E945A
:101440006A06F9CF1F920F920FB60F9211242F93B5
:101450003F938F939F93AF93BF938091D2049091CA
:10146000D304A091D404B091D5043091D10423E0E9
:10147000230F2D3720F40196A11DB11D05C026E8CC
:10148000230F0296A11DB11D2093D1048093D20495
:101490009093D304A093D404B093D5048091D60440
:1014A0009091D704A091D804B091D9040196A11DC0
:1014B000B11D8093D6049093D704A093D804B09321
:1014C000D904BF91AF919F918F913F912F910F9030
:1014D0000FBE0F901F9018952FB7F8946091D2040B
:1014E0007091D3048091D4049091D5042FBF0895B6
:1014F0003FB7F8948091D6049091D704A091D80476
:10150000B091D90426B5A89B05C02F3F19F00196CC
:10151000A11DB11D3FBF6627782F892F9A2F620F1B
:10152000711D811D911D42E0660F771F881F991F55
:101530004A95D1F70895CF92DF92EF92FF92CF9321
:10154000DF936B017C010E94780AEB01C114D10486
:10155000E104F10489F00E941D0C0E94780A6C1BC2
:101560007D0B683E734090F381E0C81AD108E10812
:10157000F108C851DC4FEACFDF91CF91FF90EF9097
:10158000DF90CF9008958230910538F0880F991F31
:10159000880F991F05970197F1F70895789484B5FE
:1015A000826084BD84B5816084BD85B5826085BD5F
:1015B00085B5816085BDEEE6F0E080818160808345
:1015C000E1E8F0E010828081826080838081816028
:1015D0008083E0E8F0E0808181608083E1EBF0E0EF
:1015E000808184608083E0EBF0E080818160808393
:1015F000EAE7F0E08081846080838081826080837C
:101600008081816080838081806880831092C100A6
:1016100008958E3008F08E50877020910C0190E470
:10162000299F90011124822B80937C0080917A0065
:10163000806480937A0080917A0086FDFCCF80914F
:1016400078002091790090E0922B08951F93CF931A
:10165000DF93182FEB0161E00E94AE0B209711F48D
:1016600060E004C0CF3FD10539F461E0812FDF9104
:10167000CF911F910C94E70BE12FF0E0E854FF4F5E
:10168000E491E330F9F048F4E130B9F0E230A1F54B
:1016900084B5806284BDC8BD34C0E730E9F0E8306D
:1016A00019F1E43049F580918000806280938000D8
:1016B000D0938B00C0938A0024C084B5806884BD19
:1016C000C7BD1FC080918000806880938000D09348
:1016D0008900C093880015C08091B0008068809315
:1016E000B000C093B3000DC08091B00080628093C1
:1016F000B000C093B40005C0C038D1050CF0B5CF20
:10170000AFCFDF91CF911F910895833081F028F4FE
:10171000813099F08230A1F008958730A9F08830A7
:10172000B9F08430D1F4809180008F7D03C0809126
:1017300080008F7780938000089584B58F7702C0F2
:1017400084B58F7D84BD08958091B0008F7703C0EC
:101750008091B0008F7D8093B0000895CF93DF9388
:1017600090E0FC01E453FF4F2491FC01E052FF4F55
:101770008491882349F190E0880F991FFC01E85F6C
:10178000FE4FA591B49182509F4FFC01C591D49119
:101790009FB7611108C0F8948C91209582238C9397
:1017A000888182230AC0623051F4F8948C91322FE0
:1017B000309583238C938881822B888304C0F8948E
:1017C0008C91822B8C939FBFDF91CF9108950F93C3
:1017D0001F93CF93DF931F92CDB7DEB7282F30E052
:1017E000F901E854FF4F8491F901E453FF4F14913C
:1017F000F901E052FF4F04910023C9F0882321F042
:1018000069830E94850B6981E02FF0E0EE0FFF1FD6
:10181000E250FF4FA591B4919FB7F8948C9161115C
:1018200003C01095812301C0812B8C939FBF0F9023
:10183000DF91CF911F910F91089508955058BB27C4
:10184000AA270ED0CBC1BCD130F0C1D120F031F4E9
:101850009F3F11F41EF48CC10EF4E095E7FB82C1AA
:10186000E92FCDD180F3BA17620773078407950774
:1018700018F071F49EF5E5C10EF4E0950B2EBA2F29
:10188000A02D0B01B90190010C01CA01A001112486
:10189000FF27591B99F0593F50F4503E68F11A1632
:1018A000F040A22F232F342F4427585FF3CF4695C3
:1018B00037952795A795F0405395C9F77EF41F16E5
:1018C000BA0B620B730B840BBAF09150A1F0FF0FAF
:1018D000BB1F661F771F881FC2F70EC0BA0F621F9B
:1018E000731F841F48F4879577956795B795F7958B
:1018F0009E3F08F0B3CF9395880F08F09927EE0F1D
:101900009795879508950AD108F481E008950CD041
:1019100065C15DD140F054D130F021F45F3F19F042
:1019200021C151118FC124C16AD198F39923C9F300
:101930005523B1F3951B550BBB27AA2762177307D5
:10194000840738F09F5F5F4F220F331F441FAA1F89
:10195000A9F333D00E2E3AF0E0E830D09150504049
:10196000E695001CCAF729D0FE2F27D0660F771FF7
:10197000881FBB1F261737074807AB07B0E809F0D9
:10198000BB0B802DBF01FF2793585F4F2AF09E3F6E
:10199000510568F0E7C056C15F3FECF3983EDCF3B9
:1019A000869577956795B795F7959F5FC9F7880FE7
:1019B000911D9695879597F90895E1E0660F771F39
:1019C000881FBB1F621773078407BA0720F0621BCA
:1019D000730B840BBA0BEE1F88F7E095089519F48A
:1019E0000EF0C0C02EC1C4C012D1C8F39638C0F7E3
:1019F00007F80F92E8942BE33AEA48EB5FE7AAD1A5
:101A00000F920F920F924DB75EB70F9262D1E8E638
:101A1000F0E0B1D04F915F91EF91FF91E595EE1F0E
:101A2000FF1F49F0FE57E0684427EE0F441FFA9568
:101A3000E1F74195550B19D10F9007FE0DC108959F
:101A400004D06894B111FEC00895E1D088F09F578A
:101A500090F0B92F9927B751A0F0D1F0660F771FFA
:101A6000881F991F1AF0BA95C9F712C0B13081F0DA
:101A7000E8D0B1E00895E5C0672F782F8827B85FD8
:101A800039F0B93FCCF3869577956795B395D9F73B
:101A90003EF490958095709561957F4F8F4F9F4F45
:101AA0000895E89409C097FB3EF490958095709551
:101AB00061957F4F8F4F9F4F9923A9F0F92F96E99A
:101AC000BB279395F695879577956795B795F1110F
:101AD000F8CFFAF4BB0F11F460FF1BC06F5F7F4FAC
:101AE0008F4F9F4F16C0882311F096E911C07723BE
:101AF00021F09EE8872F762F05C0662371F096E8C7
:101B0000862F70E060E02AF09A95660F771F881F95
:101B1000DAF7880F9695879597F90895990F000839
:101B2000550FAA0BE0E8FEEF16161706E807F907AF
:101B3000C0F012161306E407F50798F0621B730B4A
:101B4000840B950B39F40A2661F0232B242B252BCB
:101B500021F408950A2609F4A140A6958FEF811D6E
:101B6000811D089597F99F6780E870E060E008950F
:101B70009FEF80EC0895DF93CF931F930F93FF9215
:101B8000EF92DF927B018C01689405C0DA2EEF01A1
:101B9000DFD0FE01E894A5912591359145915591AD
:101BA000AEF3EF015DDEFE019701A801DA9479F74B
:101BB000DF90EF90FF900F911F91CF91DF910895EB
:101BC00000240A941616170618060906089500241C
:101BD0000A9412161306140605060895092E039496
:101BE000000C11F4882352F0BB0F40F4BF2B11F40A
:101BF00060FF04C06F5F7F4F8F4F9F4F089557FD69
:101C00009058440F551F59F05F3F71F04795880F6A
:101C100097FB991F61F09F3F79F087950895121601
:101C200013061406551FF2CF4695F1DF08C01616AD
:101C300017061806991FF1CF86957105610508945E
:101C40000895E894BB2766277727CB0197F9089575
:101C500065DF08F48FEF08959B01AC0160E070E050
:101C600080E89FE354CE7ECFCEC0D1DFE8F3992346
:101C7000D9F3940F511DBBF39150504094F059F09B
:101C8000882332F0660F771F881F91505040C1F7AC
:101C90009E3F510544F7880F911D9695879597F9BA
:101CA00008955F3FACF0983E9CF0BB2786957795F2
:101CB0006795B79508F4B1609395C1F7BB0F58F7D6
:101CC00011F460FFE8CF6F5F7F4F8F4F9F4FE3CFDF
:101CD000B9CFFA01DC01AA0FBB1F9B01AC01BF57B2
:101CE00028F422273327442750781FC0B75188F49F
:101CF000AB2F0024469537952795011CA395D2F369
:101D0000002069F0220F331F441FB395DAF30DD082
:101D100095CD61307105A0E88A07B94630F49B0182
:101D2000AC016627772788279078309621F02083AA
:101D300031834283538308950BD050CF41DF28F085
:101D400046DF18F0952309F00DCF12CF11247ACF7A
:101D500056DFA0F3959FD1F3950F50E0551F629F7A
:101D6000F001729FBB27F00DB11D639FAA27F00DF4
:101D7000B11DAA1F649F6627B00DA11D661F829F1B
:101D80002227B00DA11D621F739FB00DA11D621F00
:101D9000839FA00D611D221F749F3327A00D611D1D
:101DA000231F849F600D211D822F762F6A2F1124FF
:101DB0009F5750408AF0E1F088234AF0EE0FFF1F52
:101DC000BB1F661F771F881F91505040A9F79E3F89
:101DD000510570F0C7CE36CF5F3FECF3983EDCF391
:101DE000869577956795B795F795E7959F5FC1F7C6
:101DF000FE2B880F911D9695879597F908958EDE95
:101E0000880B990B08959F3F31F0915020F48795EE
:101E100077956795B795880F911D9695879597F952
:101E2000089597FB072E16F4009407D077FD09D08C
:101E30000E94660F07FC05D03EF4909581959F4F58
:101E40000895709561957F4F0895A1E21A2EAA1BFF
:101E5000BB1BFD010DC0AA1FBB1FEE1FFF1FA2175A
:101E6000B307E407F50720F0A21BB30BE40BF50B57
:101E7000661F771F881F991F1A9469F760957095E0
:101E8000809590959B01AC01BD01CF010895052E71
:101E900097FB1EF400940E945E0F57FD07D00E942E
:101EA000250F07FC03D04EF40C945E0F509540951F
:101EB000309521953F4F4F4F5F4F089590958095F6
:101EC000709561957F4F8F4F9F4F0895AA1BBB1B45
:101ED00051E107C0AA1FBB1FA617B70710F0A61B2A
:101EE000B70B881F991F5A95A9F780959095BC014B
:101EF000CD010895EE0FFF1F0590F491E02D099498
:101F000011E0C8E1D1E004C0FE010E947C0F2296DE
:0A1F1000CC31D107C9F7F894FFCFD8
:101F1A000000DA0480000A000B000900014832318F
:101F2A003034373043383939353736424400484F30
:101F3A004D452D44453138005354415455533A3395
:101F4A0000474554202F752F003F72763D002048E8
:101F5A005454502F312E300D0A0D0A0031302E30D4
:101F6A002E302E31320050504D205241573A200027
:101F7A002052415720434F323A2000202041454DFC
:101F8A00433A200020204144433A20002020505068
:101F9A004D3A200046696E616C2050504D3A20003F
:101FAA0063616C56616C3A2000202F200053656EE5
:101FBA00736F723A20006D560043616C69627261F8
:101FCA0074696F6E3A2056616C3A20002063616C26
:101FDA00566F6C743A2000454D463A0070706D0099
:101FEA00477265656E0059656C6C6F77005265645F
:101FFA000000000000B303BD071F04920305043765
:10200A000400000000B806BD0743065706490696B5
:10201A00066E616E00696E66006F7666002E0000BD
:00000001FF
